:100000000C9451050C9479050C9479050C947905A0
:100010000C9479050C9479050C9479050C94790568
:100020000C9479050C9479050C9479050C94DC0CEE
:100030000C9479050C9479050C9479050C94790548
:100040000C94380D0C9479050C9403100C94351015
:100050000C9479050C9479050C9479050C94790528
:100060000C9479050C9479055760655572536E5E52
:1000700059745E79708884969A96A8A8AAAFB3BE80
:10008000A1A69F8488748469798D709A779D867DF6
:10009000966B96728084807D7086675E6B5E8D5CE9
:1000A00098AF59B15779883C985362824779655C1B
:1000B00072595C72536E7753A16594A17DB59A9F76
:1000C000C594B1BE8DBA86848D6280675C8D797D62
:1000D000988B9F79918682798B79827D65844A702D
:1000E0007B6B849F729A696E7B57775E656E595CF5
:1000F00065575C6955725E5E7B507D6B6E917DA32A
:10010000949DC3A1AFC3A6B19F918B798672678678
:100110007B8D888DAC79948D808F748D798B6B7D80
:100120005E74598B729AA370B14E8F575779417292
:10013000605C6B655C745C77656580597B6E72880A
:10014000829A9A96AFB59DC7A6B5B188A3797284F5
:100150005E72866EA37B9FAA79A6797D86677D797C
:1001600080728460884C96797DBC53BC55796E59F9
:100170006B6259726259824A84605982477B596E18
:10018000777086889196AF9ABCA6AFACA69F948DE7
:100190007D807082658284848F80A87B82807B7B57
:1001A0007477847B79776582558F679D945CB541C0
:1001B000915E5C7750775C6B596255695765695001
:1001C00079537D627D827DA386AF9FB5A8A3B1B828
:1001D000969F98778D6586628284888F8B9F7D91AC
:1001E000798482728480807D84706E7267A153C727
:1001F000728B8F558067538053607D3C805357745A
:100200004A69696072726B9170989A8FBA98ACB8AB
:10021000ACA8BCACAC9A8D9D608F676986729F79E3
:100220009DA37B9184778F7D79966791507D6E62D7
:100230008D70B5609677628B437B67477955576EB3
:10024000506E55626E5C6E77677D7B6B9A79A19A72
:100250009AAFBAACB3BCB5A39F947D748067707D30
:10026000799877A18D848D798482708B7080697D77
:100270005374606E8D69BC6B9D805984595074476E
:100280006962536E596070596B655E6E6770797DF7
:100290008D8B9AA39FACB8AAB8B5A3B882A17B6B8B
:1002A00084506E796EA38096B5749886708F72882C
:1002B0007D7982774C8F53749669C765A67960847F
:1002C0004C70625969626062575C6262656B706E05
:1002D0007772778B80A39DB1B3B3BAB8A8B5A6AF38
:1002E0009198866977557065869888A8988B868FCF
:1002F000708B8084695E8F479A74869A698D676B6C
:100300007B43824A5572416E55656B5C79606E6BBA
:1003100069706E6E7279728B86A39ABCBCC1CCBEBA
:10032000B1A3947B7D6B77776E8B8D729D82749871
:100330006B8677657762727B65914C678638B370A0
:10034000A8A172984A6B59387245705769675E77F1
:100350005C70675E7459778079A18DAAB39FCAA338
:10036000AAC58DBCA1A1B1809D6B726B4E7D6988C1
:10037000A8889FA37B88797767778262A8749A9F01
:10038000778F6E6B744E7D5C5C794C7B57726B62C1
:10039000804C7B626E79678869847972827B80A3E6
:1003A0009FB5C3B5CC9AAC917794728294799D82B3
:1003B0008B9160AA62808662866584727D8D4C7D99
:1003C0007B45A1799DA1868D6E7069476941596011
:1003D000556B5E77657467656B606B77798D949DFF
:1003E000A6A3AA9A98A896A8A1A1BA809F77697790
:1003F0004C805C829D8091A17794707074555E6E84
:10040000627B94919A86776972676B74656E69678F
:1004100069606E5784556B7B598D6582826E8470DE
:1004200080887D9F9F9FBCA8BAB1A6A6848680675E
:100430008B7974A874A67B888D698D6080846E82A8
:10044000748B578F82559F779F989686777D6260D1
:10045000656559696E65656E6B70776B6B696B6E00
:1004600067748B7DA69A9AA194A194A19F91B59649
:100470008D9A77797B7474808D9179988880916753
:100480008D6E679138A66E77BC6BAF6B86805E9180
:10049000657B72677B576E606969557050656762EE
:1004A000726E7D777B827B82948F9FA1A6B39D9F86
:1004B000A3888F808482749474868D7D8D748F79E7
:1004C0007B807D797D7D8484826969983E8D98806A
:1004D000948682776E72676B725E6E5E607057771D
:1004E000656E6E697460827482948B9D96A3989AEF
:1004F0009498A6A696ACAC91948877777270728621
:100500008882868B8B8279827D708043A16B70AFED
:1005100072A17282827077846E80706969695E5997
:10052000674E6B5967726B8B6B867077846B8D86A9
:100530009F9D9DAAA6A394AC8F948F77827D797995
:10054000867D9679799174847B8882798477797DA8
:1005500043729A35AA9686AA8484846E7467656508
:100560005C6B4E70695E70606E596E696982727BF9
:100570008F829D8BA898A1AA94B8A391AC9D8B86DD
:10058000826B7279607D7D84987B91967B7B80699C
:10059000865560B14AA89880A3707D846E707B6593
:1005A0006E655C655E5C656257795E727770826EBF
:1005B0007B727B82798F8FA69D9DA8B39F9AAF98FF
:1005C000849A7D749A6E7D8B84867782847D84770D
:1005D000867D7B79797486269A8D3CDC8298AF7013
:1005E0007B80676B5E5E625767536B745E745E5EA2
:1005F000656B79699A80889A8BA18FA3A19FA19638
:10060000A1A884A8988879826277746086808F8D8B
:100610007D8F8D6E80707482623CCA4A91C56BB8C2
:1006200072708D626E7D6772675970556B6B5E601C
:1006300077677472707D727482748D8094969DA3B6
:100640009F98B3A38B9FA37B888B678F74727D84E5
:1006500084778D77917B808D7D7D77727B5E28CCD2
:100660002A9FD070B19A608B696572576959596039
:100670005762744E696060726967847D868294886F
:100680008D9A989F9DAF96A6C17BAAB169947D6013
:100690008B80698D868D8B8086867D727277866968
:1006A0008621C35370F0799188807D6E776E69657D
:1006B0005C69556260576072676B7D6B7977707BA0
:1006C0007D8B8496989DA89DA89FA1A38B8DBC80AF
:1006D000869A658D696E966E8F986E9488807298F2
:1006E000657D69793A57C700E9B85CC7705C8F557A
:1006F000726B606B5C576E50655C5E724E6E727BA7
:100700007B72847B868B868F9F949DA8A69FAAACC4
:100710008B96A36B8D79678D7086828D9D7094808A
:100720007988707B6E86776B21DE218FF762919AD4
:10073000627B6B6B74575C60505C624A655370629D
:1007400072806E7D7282778D868F9D9F9FAF9AACEF
:10075000969AB58D98BC8B88985E966B778B7B94B8
:100760008D8688847B82747970803C53CA04D5C19D
:100770006E8F885E726960725E6570575C5E596EDE
:1007800053747060796E847B7B88828B8B949A9F84
:10079000A19FAF949FB18B91B1749A7774915E8B46
:1007A0008D72918B728D798077746582627416A1D7
:1007B0006B31FF77849A7270796E6B67675C604EFD
:1007C00065574C69625E707072866E7D8F7B968D08
:1007D0009D989FAC94A6A884B8948FA8A377986E90
:1007E00079826B8F67967D728B8674867B6E6E695D
:1007F0001DDE0B8DE760A6825E776B5E82596777A0
:1008000060557053725E6072696B80727B986B8FFB
:100810008B849D88A19FA1A698A1A398A18BA87D58
:100820008B7D8D70848282827D8D887088806E80C1
:10083000599650820FC74345FF698D967282706545
:1008400088596965655560575E60676B6E6E7B7D24
:10085000747D7988919698A3A1A6A3A3AA8BA39D42
:100860008F94A6808F7284746B9667868879867958
:10087000729167795741D902AABA708B98696782D9
:100880005C706B706277655E7B55676E5E746B67DC
:1008900080797B867B868B80948D919DA8A696AA75
:1008A0009F8FB3869A8D7D966B8B80807D986288B2
:1008B000827288776E828659911FB16926F9728D8E
:1008C0009179778660798050746E57626259626060
:1008D00062726E72727B6B847096808FA384AA960C
:1008E000A1A391989D8D919F8D947B848B62947729
:1008F00079847D7D847988778070827431E22A7270
:10090000E97B8F94796E7D70746E6E746262774E3F
:1009100070575C6E62706B77698270827D86917DA4
:100920009D9896A398A89D9898919F8D9184918267
:10093000729677847D847B82728F747D6B9645532B
:10094000E50DBAB36B9886697D7070746570774EEB
:100950006B6060654A745769726974727D77867DD1
:100960008B96889D8FA19A9A9A9A9D8F949F969123
:10097000809F6B8884748080777B7B7D8B6B8D5EA2
:100980008F677B4E62C500CEC7679D826970746EAB
:10099000676567704E69575E5E5E626E677B776BF8
:1009A00086827B918488968FA1969DA396969A9F26
:1009B0008F989F8F80918F70967D827D86888280B0
:1009C0008294658D535CC31AB5AA7B8F8482707440
:1009D000776E6770696B5C60625969506E6B676BAC
:1009E0007272727B7B888B7D9D9186A19D9A98AA5D
:1009F0009D9D9D8FB8749D9A70968B748D74848024
:100A0000808D7D8B728B7D727B747D2AE21484F0E5
:100A1000609D8074697272626E62535E554A5E5365
:100A20005E7060627D6E6B778677828F918F91A109
:100A3000A194AC9A989F9DA3948FA36E849A5C8F87
:100A400080777B808B797B8688677772740D000056
:100A5000000800020100000304070000000000007D
:100A60000000010204081020408001020408102048
:100A70000102040810200404040404040404020213
:100A80000202020203030303030300000000250027
:100A900028002B0000000000240027002A00B10BD2
:100AA000651011241FBECFEFD8E0DEBFCDBF12E02E
:100AB000A0E0B1E0EAEAF4E202C005900D92AA36A5
:100AC000B107D9F723E0AAE6B2E001C01D92A6372C
:100AD000B207E1F71AE0C2EADAE004C02297FE01A9
:100AE0000E94DB11CE39D107C9F70E943F110C9447
:100AF00053120C940000FC01858596850895CF93D0
:100B0000DF9300D000D000D0CDB7DEB7AB011C82A0
:100B10001D821E82DC01ED91FC910190F081E02D9F
:100B200019821A821B829E012F5F3F4FBE016C5FAC
:100B30007F4F099526960FB6F894DEBF0FBECDBF46
:100B4000DF91CF91089580E991E00895579A089533
:100B500026E040E855E260E070E086ED92E00E9419
:100B6000A10F6AE572E086ED92E00E94EC1066E06B
:100B700071E086ED92E00E94EC106AE572E086ED8D
:100B800092E00E94EC1064E571E086ED92E00E9434
:100B9000EC1063E671E086ED92E00E94EC1061E6F5
:100BA00071E086ED92E00E94EC1060E971E086ED64
:100BB00092E00E94EC1063EA71E086ED92E00E9400
:100BC000EC1061E172E086ED92E00E94EC106AE5C3
:100BD00072E086ED92E00E94EC106FE172E086ED2B
:100BE00092E00E94EC1080917D02811145C010922C
:100BF0006F0210926E028FEF8093720280937302E5
:100C000080937402809375028093760280937702BA
:100C100081E08093780210927A0210927902109209
:100C20007102109270028091BA029091BB02892BDE
:100C300031F48CE692E09093BB028093BA02E0918B
:100C4000B802F091B902309721F08CE692E09583DA
:100C500084838CE692E09093B9028093B80210925C
:100C60007C0210927B028AE392E090936D02809363
:100C70006C0281E080937D0220E030E04CE050E0A7
:100C800069E872E08CE692E00E94760B84E580933E
:100C9000BC020895E9E8F2E03AEF2081239F020EBA
:100CA00020E0211D20832181239F020E20E0211DB1
:100CB00021832281239F020E20E0211D2283112403
:100CC000339682E0ED3AF80741F70895FF920F93CB
:100CD0001F93CF93DF9300D01F92CDB7DEB720EAEA
:100CE0003FE040E050E064EF71E080E090E00E947F
:100CF00022116093850270938602809387029093FD
:100D0000880264E372E086ED92E00E94E61009E852
:100D100012E0FF24FA9480916B0291E0980F909377
:100D20006B028983FA82FB82B801CE0101960E9490
:100D3000C80B6091BC028CEB92E00E949D0A66EEAB
:100D400079E088E690E00E946B0C0E944A066AE017
:100D500070E080E090E00E94B10D0D5F1F4F82E0D7
:100D60000D3A1807C1F66091850270918602809154
:100D70008702909188020E94B10D0F900F900F9002
:100D8000DF91CF911F910F91FF9008959F92AF92A5
:100D9000BF92CF92DF92EF92FF920F931F93CF9368
:100DA000DF93EC01E881F9819BB190688BB18F777B
:100DB0008BB959852E81D52ED21ADE82AF84AA81B5
:100DC000BB812C853D854E852F5F3F5F4F5FEF8058
:100DD000F8849A84CB851081C12C0C2D6C2D7C2D30
:100DE00070811127889471117D0D08F47FEFD194E3
:100DF000889420FD170F1795889421FD170F1795DC
:100E0000889422FD170F1795889423FD170F1795C7
:100E1000889424FD170F1795889425FD170F1795B3
:100E2000889426FD170F1795889427FD170F17959F
:100E30008894072F2111012FD50E102F002C9BB95C
:100E400000C017FF8BB971810027889400C000C0D3
:100E5000002C8BB971117E0D00C0002C9BB900C015
:100E600016FF8BB908F47FEFE194889400C000C0AE
:100E7000002C8BB930FD070F00C0002C9BB900C0BF
:100E800015FF8BB90795889431FD070F00C000C08E
:100E9000002C8BB90795889400C0002C9BB900C02A
:100EA00014FF8BB932FD070F0795889400C000C06E
:100EB000002C8BB933FD070F00C0002C9BB900C07C
:100EC00013FF8BB90795889434FD070F00C000C04D
:100ED000002C8BB90795889400C0002C9BB900C0EA
:100EE00012FF8BB935FD070F0795889400C000C02D
:100EF000002C8BB936FD070F00C0002C9BB900C039
:100F000011FF8BB90795889437FD070F00C000C00B
:100F1000002C8BB90795889400C0002C9BB900C0A9
:100F200010FF8BB9172F3111102FE90C00C000C032
:100F3000002C8BB900C000C0002C9BB900C017FF6B
:100F40008BB972810027889400C000C0002C8BB937
:100F500071117F0D00C0002C9BB900C016FF8BB92A
:100F600008F47FEFEA0DF11D00C000C0002C8BB922
:100F700040FD070F00C0002C9BB900C015FF8BB9C6
:100F80000795889441FD070F00C000C0002C8BB965
:100F90000795889400C0002C9BB900C014FF8BB942
:100FA00042FD070F0795889400C000C0002C8BB944
:100FB00043FD070F00C0002C9BB900C013FF8BB985
:100FC0000795889444FD070F00C000C0002C8BB922
:100FD0000795889400C0002C9BB900C012FF8BB904
:100FE00045FD070F0795889400C000C0002C8BB901
:100FF00046FD070F00C0002C9BB900C011FF8BB944
:101000000795889447FD070F00C000C0002C8BB9DE
:101010000795889400C0002C9BB900C010FF8BB9C5
:10102000172F4111102FF19400C000C0002C8BB974
:10103000FC0E00C000C09BB900C017FF8BB97081C7
:101040000027889400C000C0002C8BB971117D0D61
:1010500000C0002C9BB900C016FF8BB908F47FEFCD
:10106000D194889400C000C0002C8BB920FD070FDC
:1010700000C0002C9BB900C015FF8BB90795889460
:1010800021FD070F00C000C0002C8BB90795889484
:1010900000C0002C9BB900C014FF8BB922FD070FC4
:1010A0000795889400C000C0002C8BB923FD070F62
:1010B00000C0002C9BB900C013FF8BB90795889422
:1010C00024FD070F00C000C0002C8BB90795889441
:1010D00000C0002C9BB900C012FF8BB925FD070F83
:1010E0000795889400C000C0002C8BB926FD070F1F
:1010F00000C0002C9BB900C011FF8BB907958894E4
:1011000027FD070F00C000C0002C8BB907958894FD
:1011100000C0002C9BB900C010FF8BB9172F211104
:10112000102FD50E00C000C0002C8BB9119709F00C
:1011300086CEDF91CF911F910F91FF90EF90DF90BE
:10114000CF90BF90AF909F9008950F931F93CF9330
:10115000DF93EC018B010E948E0D2F853889621B75
:10116000730B6A307105B8F3F894C8010E94C60683
:10117000F8014281538120EE31E0DA010E94C7116B
:10118000E4E09695879577956795EA95D1F720E005
:1011900030E0EAE94E9F212D5E9F200D311D112484
:1011A000620F731F811D911D693EF3E07F0781056A
:1011B0009105A8F1DC01CB01885E9340A109B1093A
:1011C00022E0B695A795979587952A95D1F740E0A7
:1011D00050E027E0829F412D929F400D511D112428
:1011E0002091AD0230E0280F391F240F351F809168
:1011F000CE029091CF02A091D002B091D102432FA4
:101200005527840F951FA11DB11D8093CE02909389
:10121000CF02A093D002B093D1022093AD02789474
:101220000E948E0D788B6F87DF91CF911F910F9168
:101230000895FC01118A108A0895FF920F931F935D
:10124000CF93DF93EC0180916A028F5F982F9770A4
:1012500090936A0280FD02C080E001C080E891FDA9
:101260008064947009F08062F0E1FF2EF80E20E0B7
:1012700030E000E011E0FE01E20FF31F6485662319
:1012800031F070E0C8010E9472116F5F01C060E030
:1012900061874F2D469F040E40E0411D11244111EE
:1012A00002C0168202C041504683662311F061508D
:1012B00061872F5F3F4F23303105E9F6DF91CF91F2
:1012C0001F910F91FF900895EF92FF920F931F933C
:1012D000CF93DF93CDB7DEB762970FB6F894DEBF3A
:1012E0000FBECDBF8C017A01F901DC011C968C91F7
:1012F0007A8369835C834B835E834D8390819D8772
:1013000091819E8792819F87813029F4CE01019639
:101310000E941D0906C01C861B861A86198618861F
:101320001F82188AB701CE0101960E941909D801BF
:10133000ED91FC910484F585E02DBE016F5F7F4F38
:10134000C801099562960FB6F894DEBF0FBECDBFF7
:10135000DF91CF911F910F91FF90EF900895EF9241
:10136000FF920F931F93CF93DF93CDB7DEB76297B2
:101370000FB6F894DEBF0FBECDBF8C017A01F90124
:10138000DC011C968C917A8369835C834B835E833A
:101390004D8390819D8791819E8792819F87813027
:1013A00029F4CE0101960E941D0906C01C861B86E9
:1013B0001A86198618861F8283E0888BB701CE01B2
:1013C00001960E941909D801ED91FC910484F585DC
:1013D000E02DBE016F5F7F4FC801099562960FB681
:1013E000F894DEBF0FBECDBFDF91CF911F910F915B
:1013F000FF90EF9008958F929F92AF92BF92EF92DD
:10140000FF920F931F93CF93DF93EC011882198201
:101410001A824423B9F1E0E0F0E08B010A5F1F4F2C
:101420007B0189E0E80EF11C842E912CA12CB12CBB
:10143000D801AE0FBF1F2C91D701AE0FBF1F6C910B
:101440002223E1F06623D1F030E040E050E02F5F4E
:101450003F4F4F4F5F4F70E080E090E06F5F7F4FF6
:101460008F4F9F4F0E944E119B01AC01C501B401EB
:101470000E944E11DE01AE0FBF1F8C933196E330F8
:10148000F105B1F6CE01DF91CF911F910F91FF9041
:10149000EF90BF90AF909F908F900895CF92DF9282
:1014A000EF92FF92CF93DF93EC018091B202909183
:1014B000B3029C012F5F3F4F3093B3022093B202DF
:1014C000861797079CF10E94820D9B01AC01E09169
:1014D000B202F091B30288EE93E0E89FB001E99F79
:1014E000700DF89F700D1124882777FD8095982F37
:1014F000C090AE02D090AF02E090B002F090B10286
:101500002C193D094E095F090E9486113A832983EF
:101510001092B3021092B2020E94820D6093AE024A
:101520007093AF028093B0029093B102DF91CF919C
:10153000FF90EF90DF90CF9008958F929F92AF929F
:10154000BF92EF92FF920F931F93CF93DF9300D040
:101550001F92CDB7DEB78C01F62EF80183819481FE
:10156000A581B681892B8A2B8B2BD1F00E948E0D01
:101570008090B4029090B502A090B602B090B702ED
:10158000681979098A099B09D80113968D909D9055
:10159000AD90BC901697681579058A059B05E8F211
:1015A0000E948E0D6093B4027093B5028093B602D0
:1015B0009093B702D8011B96ED91FC911C97309740
:1015C00051F0D80117964D915D916D917C911A97CC
:1015D0008F2D0995F82EA090BA02B090BB02A114ED
:1015E000B10451F1F501E484D80111968D919C91DB
:1015F00012978436910508F41486D501ED91FC917B
:10160000828093804F2DB501CE0101960E94FB0987
:10161000F50145855685628173819E012F5F3F4F9D
:10162000C501F4010995D5011C96EC921C971496FE
:10163000AD90BC901597D3CF69E170E0C8010E94CE
:101640004E0A0F900F900F90DF91CF911F910F9145
:10165000FF90EF90BF90AF909F908F900895CF92A2
:10166000DF92EF92FF920F931F93CF93DF93EC01E2
:101670004423F1F06115710581F19B0140E050E0D8
:1016800060E472E48FE090E00E94A811CB80DC80DF
:10169000ED80FE8089019A010C151D052E053F0580
:1016A00010F4970186010B831C832D833E8315C0A4
:1016B0006115710571F09B0140E050E060E472E457
:1016C0008FE090E00E94A8112B833C834D835E83C2
:1016D00004C01B821C821D821E82DF91CF911F914C
:1016E0000F91FF90EF90DF90CF900895CF92DF920F
:1016F000EF92FF920F931F93CF93DF93EC016B0157
:101700008A017901121613061CF07A0100E010E03C
:10171000E881F9810480F581E02DCE010995C801A9
:10172000880F991F800F911F8C0D9D1D9B838A83AD
:10173000FE86ED86E881F9810284F385E02DCE01F5
:10174000099541E0BC018CEB92E00E942F0BCE0189
:10175000DF91CF911F910F91FF90EF90DF90CF908D
:1017600008958FEF8093BC021092BE021092BD02CA
:101770001092C8021092C7028FEF9FEFDC01809396
:10178000C3029093C402A093C502B093C602089509
:10179000FC01DB01408161817281242F2F71220FB6
:1017A000220F220F522F35E5539F050E50E0511D99
:1017B0001124352F942F9074842F807247FD1FC001
:1017C00091110AC0811103C03095452F11C045E524
:1017D000450F20E03BEA2FC081110CC03AEA239F5D
:1017E000020E20E0211D11243BEA321B4AEA450F7C
:1017F00020E021C080E0452F4095252F0DC091119C
:1018000010C081110BC03AEA239F020E20E0211D77
:1018100011244BEA421B2B5A30E00DC0252F209596
:1018200009C0811103C03B5A2BEA03C0365580E042
:1018300025E5251B40E06F3F09F423C06623F1F046
:10184000332321F0369F030E30E0311D442321F075
:10185000469F040E40E0411D222321F0269F020EE8
:1018600020E0211D1124562F5095559F050E50E064
:10187000511D1124350F450F250F03C02FEF4FEFDA
:101880003FEF7F3F09F420C050E0772321F0779F9E
:10189000512D09F05F5F5523A1F0332321F0359FCF
:1018A000030E30E0311D442321F0459F040E40E03B
:1018B000411D222321F0259F020E20E0211D11242D
:1018C00003C020E040E030E03C9311964C93119728
:1018D00012962C9308959093CC028093CB02709330
:1018E000CA026093C90261E0809104010E944F0E18
:1018F000E6EBF0E080818F798083E0EBF0E080819F
:1019000083608083A1EBB0E08C91877F8C93808192
:101910008F738068808380818F7C80838C91887FA7
:1019200081608C93E091CB02F091CC02E491E09342
:10193000B300F894E1E8F0E08081877E88608083DE
:10194000A0E8B0E08C918C7F8C938081887F81604F
:10195000808380ED97E09093890080938800EFE684
:10196000F0E08081826080838091C9029091CA02F8
:101970000197E091CB02F091CC02E80FF91FE491BE
:10198000E093730310927503109274037894089592
:10199000EFE6F0E080818D7F8083E1E8F0E08081F8
:1019A0008E7F8083E1EBF0E080818E7F808360E03A
:1019B000809104010C94880E1F920F920FB60F9223
:1019C00011242F933F934F935F936F937F938F9344
:1019D0009F93AF93BF93EF93FF9320917403309144
:1019E00075038091C9029091CA0228173907C0F087
:1019F0004091740350917503609173039C01260F0D
:101A0000311D4217530719F40E94C80C16C02091CB
:101A1000740330917503860F821B8093B3000DC051
:101A20008091740390917503E091CB02F091CC0208
:101A3000E80FF91FE491E093B30080917403909153
:101A4000750301969093750380937403FF91EF9152
:101A5000BF91AF919F918F917F916F915F914F91C6
:101A60003F912F910F900FBE0F901F9018950895E2
:101A70001F920F920FB60F9211242F933F938F93C3
:101A80009F93AF93BF938091CE029091CF02A0918C
:101A9000D002B091D1023091CD0223E0230F2D3737
:101AA00020F40196A11DB11D05C026E8230F029662
:101AB000A11DB11D2093CD028093CE029093CF0241
:101AC000A093D002B093D1028091D2029091D30220
:101AD000A091D402B091D5020196A11DB11D8093B1
:101AE000D2029093D302A093D402B093D502BF91B7
:101AF000AF919F918F913F912F910F900FBE0F90BB
:101B00001F9018952FB7F8946091CE027091CF0274
:101B10008091D0029091D1022FBF08953FB7F894E1
:101B20008091D2029091D302A091D402B091D502BB
:101B300026B5A89B05C02F3F19F00196A11DB11D28
:101B40003FBF6627782F892F9A2F620F711D811D45
:101B5000911D42E0660F771F881F991F4A95D1F7A4
:101B600008958F929F92AF92BF92CF92DF92EF92A1
:101B7000FF926B017C010E948E0D4B015C01C11430
:101B8000D104E104F104F1F00E94370D0E948E0DA2
:101B9000681979098A099B09683E73408105910596
:101BA00070F321E0C21AD108E108F10888EE880E2E
:101BB00083E0981EA11CB11CC114D104E104F104FE
:101BC00029F7DDCFFF90EF90DF90CF90BF90AF90DF
:101BD0009F908F900895789484B5826084BD84B579
:101BE000816084BD85B5826085BD85B5816085BD18
:101BF000EEE6F0E0808181608083E1E8F0E0108231
:101C0000808182608083808181608083E0E8F0E071
:101C1000808181608083E1EBF0E08081846080835B
:101C2000E0EBF0E0808181608083EAE7F0E0808192
:101C300084608083808182608083808181608083F2
:101C40008081806880831092C1000895833081F084
:101C500028F4813099F08230A1F008958730A9F0FE
:101C60008830B9F08430D1F4809180008F7D03C03A
:101C7000809180008F7780938000089584B58F775E
:101C800002C084B58F7D84BD08958091B0008F77A8
:101C900003C08091B0008F7D8093B0000895CF93F2
:101CA000DF9390E0FC01EE59F54F2491FC01EA58D6
:101CB000F54F8491882349F190E0880F991FFC012A
:101CC000EC56F54FA591B4918657954FFC01C591FF
:101CD000D4919FB7611108C0F8948C91209582230C
:101CE0008C93888182230AC0623051F4F8948C91DD
:101CF000322F309583238C938881822B888304C074
:101D0000F8948C91822B8C939FBFDF91CF91089593
:101D10000F931F93CF93DF931F92CDB7DEB7282F7A
:101D200030E0F901E25BF54F8491F901EE59F54F8E
:101D30001491F901EA58F54F04910023C9F0882362
:101D400021F069830E94260E6981E02FF0E0EE0FFA
:101D5000FF1FE657F54FA591B4919FB7F8948C916A
:101D6000611103C01095812301C0812B8C939FBF0B
:101D70000F90DF91CF911F910F910895FC01818DFC
:101D8000228D90E0805C9F4F821B91098F73992771
:101D90000895FC01918D828D981731F0828DE80FA6
:101DA000F11D858D90E008958FEF9FEF0895FC0160
:101DB000918D828D981761F0828DDF01A80FB11D82
:101DC0005D968C91928D9F5F9F73928F90E00895A6
:101DD0008FEF9FEF08958BE590E1892B49F080E02C
:101DE00090E0892B29F00E945B1081110C94000077
:101DF0000895FC01848DDF01A80FB11DA35ABF4FC8
:101E00002C91848D90E001968F739927848FA689F9
:101E1000B7892C93A089B1898C9180648C93938D20
:101E2000848D981306C00288F389E02D80818F7D10
:101E300080830895CF93DF93EC01888D8823C9F0C8
:101E4000EA89FB89808185FD05C0A889B9898C91C3
:101E500086FD0FC00FB607FCF5CF808185FFF2CF5E
:101E6000A889B9898C9185FFEDCFCE010E94F90E2A
:101E7000E7CFDF91CF910895CF92DF92FF920F933A
:101E80001F93CF93DF931F92CDB7DEB76C0181E034
:101E9000D60158968C9358975B969C915B975C966D
:101EA0008C915C97981307C05096ED91FC915197D7
:101EB000808185FD2EC0F601038D10E00F5F1F4F5E
:101EC0000F731127F02EF601848DF81211C00FB692
:101ED00007FCF9CFD6015096ED91FC915197808186
:101EE00085FFF1CFC60169830E94F90E6981EBCFAE
:101EF000838DE80FF11DE35AFF4F6083D6015B9697
:101F00000C935B975296ED91FC9153978081806280
:101F10000CC0D6015696ED91FC9157976083509670
:101F2000ED91FC91519780818064808381E090E005
:101F30000F90DF91CF911F910F91FF90DF90CF9085
:101F40000895BF92CF92DF92EF92FF92CF93DF93EB
:101F5000EC016A017B01B22EE889F98982E0808375
:101F6000411581EE580761057105A1F060E079E047
:101F70008DE390E0A70196010E948611215031095E
:101F8000410951095695479537952795211580E1C7
:101F9000380798F0E889F989108260E874E88EE1E2
:101FA00090E0A70196010E94861121503109410954
:101FB00051095695479537952795EC85FD853083D2
:101FC000EE85FF852083188EEC89FD89B082EA8931
:101FD000FB89808180618083EA89FB8980818860B8
:101FE0008083EA89FB89808180688083EA89FB8914
:101FF00080818F7D8083DF91CF91FF90EF90DF9084
:10200000CF90BF9008951F920F920FB60F92112498
:102010002F938F939F93EF93FF93E091E602F091BC
:10202000E7028081E091EC02F091ED0282FD12C0A6
:1020300090818091EF028F5F8F732091F002821761
:1020400051F0E091EF02F0E0EA52FD4F958F80935E
:10205000EF0201C08081FF91EF919F918F912F91AD
:102060000F900FBE0F901F9018951F920F920FB6F2
:102070000F9211242F933F934F935F936F937F930E
:102080008F939F93AF93BF93EF93FF9386ED92E06F
:102090000E94F90EFF91EF91BF91AF919F918F91A7
:1020A0007F916F915F914F913F912F910F900FBE54
:1020B0000F901F90189586ED92E00E94BE0E21E0D1
:1020C000892B09F420E0822F08951092D9021092F2
:1020D000D80288EE93E0A0E0B0E08093DA0290931B
:1020E000DB02A093DC02B093DD028CE492E09093DB
:1020F000D7028093D60285EC90E09093E302809320
:10210000E20284EC90E09093E5028093E40280EC9C
:1021100090E09093E7028093E60281EC90E0909348
:10212000E9028093E80282EC90E09093EB028093C6
:10213000EA0286EC90E09093ED028093EC0210921C
:10214000EF021092F0021092F1021092F202089542
:10215000CF92DF92EF92FF920F931F93CF93DF9373
:102160007C016A01EB0100E010E00C151D0571F027
:102170006991D701ED91FC910190F081E02DC701AB
:102180000995892B19F00F5F1F4FEFCFC801DF9121
:10219000CF911F910F91FF90EF90DF90CF90089516
:1021A0006115710581F0DB010D900020E9F7AD01AB
:1021B00041505109461B570BDC01ED91FC91028007
:1021C000F381E02D099480E090E008950C94D01004
:1021D00068E572E00C94D0100F931F93CF93DF93B8
:1021E000EC010E94D0108C01CE010E94E810800FFB
:1021F000911FDF91CF911F910F910895CF93DF939E
:1022000000D000D0CDB7DEB79B01AC0161157105E0
:102210008105910569F069833A834B835C830E9451
:102220003D1229813A814B815C810E94A81103C033
:1022300060E070E0CB010F900F900F900F90DF9156
:10224000CF910895CF92DF92EF92FF926B017C01C4
:10225000621773078407950764F4CA01B9016C1902
:102260007D098E099F090E94FE106C0D7D1D8E1D3B
:102270009F1DFF90EF90DF90CF90089508950E94EA
:10228000EB0D0E943E110E94A805CBEEDEE00E94FD
:1022900066062097E1F30E94EB0EF9CFDB018F93E6
:1022A0009F930E94CE11BF91AF91A29F800D911D6F
:1022B000A39F900DB29F900D11240895AA1BBB1BE4
:1022C00051E107C0AA1FBB1FA617B70710F0A61B36
:1022D000B70B881F991F5A95A9F780959095BC0157
:1022E000CD01089597FB072E16F4009407D077FDD3
:1022F00009D00E945E1107FC05D03EF490958195AF
:102300009F4F0895709561957F4F0895A1E21A2E11
:10231000AA1BBB1BFD010DC0AA1FBB1FEE1FFF1F89
:10232000A217B307E407F50720F0A21BB30BE40BD9
:10233000F50B661F771F881F991F1A9469F7609520
:102340007095809590959B01AC01BD01CF010895DA
:10235000052E97FB1EF400940E94BF1157FD07D075
:102360000E94861107FC03D04EF40C94BF115095C7
:102370004095309521953F4F4F4F5F4F0895909571
:102380008095709561957F4F8F4F9F4F08950E9464
:10239000DF11B7FF0895821B930B08950E94DF1190
:1023A000A59F900DB49F900DA49F800D911D1124A9
:1023B0000895EE0FFF1F0590F491E02D0994A29F60
:1023C000B001B39FC001A39F700D811D1124911D09
:1023D000B29F700D811D1124911D08958F929F92BF
:1023E000AF92BF92CF92DF92EF92FF92CF93DF93A3
:1023F000EC01688179818A819B8161157105810574
:10240000910521F464E279ED8BE597E02DE133EF5E
:1024100041E050E00E94A81149015A019B01AC0122
:10242000A7EAB1E40E94CE116B017C01ACEEB4EFDF
:10243000A50194010E944E12C60ED71EE81EF91E79
:10244000F7FE06C081E0C81AD108E10880E8F80A62
:10245000C882D982EA82FB82C701B6019F77DF91E9
:10246000CF91FF90EF90DF90CF90BF90AF909F9073
:102470008F9008950E94EE11089580E091E00E94EF
:10248000EE110895609300017093010180930201A1
:10249000909303010895B7FF0C94CE110E94CE11C2
:0A24A000821B930B0895F894FFCF00
:1024AA00010000000B005753323831324220416498
:1024BA00647265737361626C65204C454420507385
:1024CA0075646F204A61636F6273206C616464652E
:1024DA00722032303136202D5369676D617A406738
:1024EA006D61696C2E636F6D284A6F6E204272753A
:1024FA006E6F29002D2D2D50494E4F5554532D2DB9
:10250A002D20004C45442044415441202D2050693F
:10251A006E20443720202020202020204175646925
:10252A006F204F75747075742B202D204431310043
:10253A004C45442054595045202D205753323831A8
:10254A003242004E756D626572206F66204C4544BA
:10255A00533A203220737472697073206F66203187
:10256A003220666163696E67206F6E6520616E6FE7
:10257A0074686572206F6E206120736C6967687475
:10258A0020696E7761726420616E676C6520776975
:10259A007468207768697465206261636B67726F1B
:1025AA00756E6420666F7220696C6C7573696F6EE4
:1025BA00002D2D2D2D2D2D2D2D2D2D2D2D2D007850
:1025CA00203D2072616E646F6D20617263206576B2
:1025DA00656E74007800000000006409AF09A60562
:1025EA007F057B05A305A508000000003C0FA81085
:1025FA00BE0ED70EC90E1A0F0D0A006E616E006963
:0A260A006E66006F7666002E000079
:107E0000112484B714BE81FFF0D085E080938100F7
:107E100082E08093C00088E18093C10086E0809377
:107E2000C20080E18093C4008EE0C9D0259A86E02C
:107E300020E33CEF91E0309385002093840096BBD3
:107E4000B09BFECF1D9AA8958150A9F7CC24DD24C4
:107E500088248394B5E0AB2EA1E19A2EF3E0BF2EE7
:107E6000A2D0813461F49FD0082FAFD0023811F036
:107E7000013811F484E001C083E08DD089C08234E0
:107E800011F484E103C0853419F485E0A6D080C0E4
:107E9000853579F488D0E82EFF2485D0082F10E0AE
:107EA000102F00270E291F29000F111F8ED06801E7
:107EB0006FC0863521F484E090D080E0DECF843638
:107EC00009F040C070D06FD0082F6DD080E0C81688
:107ED00080E7D80618F4F601B7BEE895C0E0D1E017
:107EE00062D089930C17E1F7F0E0CF16F0E7DF06D8
:107EF00018F0F601B7BEE89568D007B600FCFDCFD4
:107F0000A601A0E0B1E02C9130E011968C91119780
:107F100090E0982F8827822B932B1296FA010C0160
:107F200087BEE89511244E5F5F4FF1E0A038BF0790
:107F300051F7F601A7BEE89507B600FCFDCF97BE46
:107F4000E89526C08437B1F42ED02DD0F82E2BD052
:107F50003CD0F601EF2C8F010F5F1F4F84911BD097
:107F6000EA94F801C1F70894C11CD11CFA94CF0C13
:107F7000D11C0EC0853739F428D08EE10CD085E9AC
:107F80000AD08FE07ACF813511F488E018D01DD067
:107F900080E101D065CF982F8091C00085FFFCCF94
:107FA0009093C60008958091C00087FFFCCF809118
:107FB000C00084FD01C0A8958091C6000895E0E648
:107FC000F0E098E1908380830895EDDF803219F02E
:107FD00088E0F5DFFFCF84E1DECF1F93182FE3DFCA
:107FE0001150E9F7F2DF1F91089580E0E8DFEE27F6
:047FF000FF270994CA
:027FFE00040479
:0400000300007E007B
:00000001FF
